{
  "_format": "hh-sol-artifact-1",
  "contractName": "Daofork",
  "sourceName": "contracts/Daofork.sol",
  "abi": [
    {
      "inputs": [],
      "stateMutability": "nonpayable",
      "type": "constructor"
    },
    {
      "anonymous": false,
      "inputs": [
        {
          "indexed": true,
          "internalType": "address",
          "name": "owner",
          "type": "address"
        },
        {
          "indexed": true,
          "internalType": "address",
          "name": "approved",
          "type": "address"
        },
        {
          "indexed": true,
          "internalType": "uint256",
          "name": "tokenId",
          "type": "uint256"
        }
      ],
      "name": "Approval",
      "type": "event"
    },
    {
      "anonymous": false,
      "inputs": [
        {
          "indexed": true,
          "internalType": "address",
          "name": "owner",
          "type": "address"
        },
        {
          "indexed": true,
          "internalType": "address",
          "name": "operator",
          "type": "address"
        },
        {
          "indexed": false,
          "internalType": "bool",
          "name": "approved",
          "type": "bool"
        }
      ],
      "name": "ApprovalForAll",
      "type": "event"
    },
    {
      "anonymous": false,
      "inputs": [
        {
          "indexed": true,
          "internalType": "address",
          "name": "previousOwner",
          "type": "address"
        },
        {
          "indexed": true,
          "internalType": "address",
          "name": "newOwner",
          "type": "address"
        }
      ],
      "name": "OwnershipTransferred",
      "type": "event"
    },
    {
      "anonymous": false,
      "inputs": [
        {
          "indexed": true,
          "internalType": "address",
          "name": "from",
          "type": "address"
        },
        {
          "indexed": true,
          "internalType": "address",
          "name": "to",
          "type": "address"
        },
        {
          "indexed": true,
          "internalType": "uint256",
          "name": "tokenId",
          "type": "uint256"
        }
      ],
      "name": "Transfer",
      "type": "event"
    },
    {
      "inputs": [
        {
          "internalType": "address",
          "name": "to",
          "type": "address"
        },
        {
          "internalType": "uint256",
          "name": "tokenId",
          "type": "uint256"
        }
      ],
      "name": "approve",
      "outputs": [],
      "stateMutability": "nonpayable",
      "type": "function"
    },
    {
      "inputs": [
        {
          "internalType": "address",
          "name": "owner",
          "type": "address"
        }
      ],
      "name": "balanceOf",
      "outputs": [
        {
          "internalType": "uint256",
          "name": "",
          "type": "uint256"
        }
      ],
      "stateMutability": "view",
      "type": "function"
    },
    {
      "inputs": [],
      "name": "baseExtension",
      "outputs": [
        {
          "internalType": "string",
          "name": "",
          "type": "string"
        }
      ],
      "stateMutability": "view",
      "type": "function"
    },
    {
      "inputs": [],
      "name": "baseURI",
      "outputs": [
        {
          "internalType": "string",
          "name": "",
          "type": "string"
        }
      ],
      "stateMutability": "view",
      "type": "function"
    },
    {
      "inputs": [
        {
          "internalType": "uint256",
          "name": "tokenId",
          "type": "uint256"
        }
      ],
      "name": "getApproved",
      "outputs": [
        {
          "internalType": "address",
          "name": "",
          "type": "address"
        }
      ],
      "stateMutability": "view",
      "type": "function"
    },
    {
      "inputs": [
        {
          "internalType": "address",
          "name": "owner",
          "type": "address"
        },
        {
          "internalType": "address",
          "name": "operator",
          "type": "address"
        }
      ],
      "name": "isApprovedForAll",
      "outputs": [
        {
          "internalType": "bool",
          "name": "",
          "type": "bool"
        }
      ],
      "stateMutability": "view",
      "type": "function"
    },
    {
      "inputs": [],
      "name": "maxMintAmount",
      "outputs": [
        {
          "internalType": "uint256",
          "name": "",
          "type": "uint256"
        }
      ],
      "stateMutability": "view",
      "type": "function"
    },
    {
      "inputs": [],
      "name": "maxSupply",
      "outputs": [
        {
          "internalType": "uint256",
          "name": "",
          "type": "uint256"
        }
      ],
      "stateMutability": "view",
      "type": "function"
    },
    {
      "inputs": [
        {
          "internalType": "address",
          "name": "_to",
          "type": "address"
        },
        {
          "internalType": "uint256",
          "name": "_mintId",
          "type": "uint256"
        }
      ],
      "name": "mint",
      "outputs": [],
      "stateMutability": "payable",
      "type": "function"
    },
    {
      "inputs": [],
      "name": "name",
      "outputs": [
        {
          "internalType": "string",
          "name": "",
          "type": "string"
        }
      ],
      "stateMutability": "view",
      "type": "function"
    },
    {
      "inputs": [],
      "name": "owner",
      "outputs": [
        {
          "internalType": "address",
          "name": "",
          "type": "address"
        }
      ],
      "stateMutability": "view",
      "type": "function"
    },
    {
      "inputs": [
        {
          "internalType": "uint256",
          "name": "tokenId",
          "type": "uint256"
        }
      ],
      "name": "ownerOf",
      "outputs": [
        {
          "internalType": "address",
          "name": "",
          "type": "address"
        }
      ],
      "stateMutability": "view",
      "type": "function"
    },
    {
      "inputs": [
        {
          "internalType": "bool",
          "name": "_state",
          "type": "bool"
        }
      ],
      "name": "pause",
      "outputs": [],
      "stateMutability": "nonpayable",
      "type": "function"
    },
    {
      "inputs": [],
      "name": "paused",
      "outputs": [
        {
          "internalType": "bool",
          "name": "",
          "type": "bool"
        }
      ],
      "stateMutability": "view",
      "type": "function"
    },
    {
      "inputs": [],
      "name": "renounceOwnership",
      "outputs": [],
      "stateMutability": "nonpayable",
      "type": "function"
    },
    {
      "inputs": [
        {
          "internalType": "address",
          "name": "from",
          "type": "address"
        },
        {
          "internalType": "address",
          "name": "to",
          "type": "address"
        },
        {
          "internalType": "uint256",
          "name": "tokenId",
          "type": "uint256"
        }
      ],
      "name": "safeTransferFrom",
      "outputs": [],
      "stateMutability": "nonpayable",
      "type": "function"
    },
    {
      "inputs": [
        {
          "internalType": "address",
          "name": "from",
          "type": "address"
        },
        {
          "internalType": "address",
          "name": "to",
          "type": "address"
        },
        {
          "internalType": "uint256",
          "name": "tokenId",
          "type": "uint256"
        },
        {
          "internalType": "bytes",
          "name": "data",
          "type": "bytes"
        }
      ],
      "name": "safeTransferFrom",
      "outputs": [],
      "stateMutability": "nonpayable",
      "type": "function"
    },
    {
      "inputs": [
        {
          "internalType": "address",
          "name": "operator",
          "type": "address"
        },
        {
          "internalType": "bool",
          "name": "approved",
          "type": "bool"
        }
      ],
      "name": "setApprovalForAll",
      "outputs": [],
      "stateMutability": "nonpayable",
      "type": "function"
    },
    {
      "inputs": [
        {
          "internalType": "string",
          "name": "_newBaseExtension",
          "type": "string"
        }
      ],
      "name": "setBaseExtension",
      "outputs": [],
      "stateMutability": "nonpayable",
      "type": "function"
    },
    {
      "inputs": [
        {
          "internalType": "string",
          "name": "_newBaseURI",
          "type": "string"
        }
      ],
      "name": "setBaseURI",
      "outputs": [],
      "stateMutability": "nonpayable",
      "type": "function"
    },
    {
      "inputs": [
        {
          "internalType": "uint256",
          "name": "_newmaxMintAmount",
          "type": "uint256"
        }
      ],
      "name": "setmaxMintAmount",
      "outputs": [],
      "stateMutability": "nonpayable",
      "type": "function"
    },
    {
      "inputs": [
        {
          "internalType": "bytes4",
          "name": "interfaceId",
          "type": "bytes4"
        }
      ],
      "name": "supportsInterface",
      "outputs": [
        {
          "internalType": "bool",
          "name": "",
          "type": "bool"
        }
      ],
      "stateMutability": "view",
      "type": "function"
    },
    {
      "inputs": [],
      "name": "symbol",
      "outputs": [
        {
          "internalType": "string",
          "name": "",
          "type": "string"
        }
      ],
      "stateMutability": "view",
      "type": "function"
    },
    {
      "inputs": [
        {
          "internalType": "uint256",
          "name": "index",
          "type": "uint256"
        }
      ],
      "name": "tokenByIndex",
      "outputs": [
        {
          "internalType": "uint256",
          "name": "",
          "type": "uint256"
        }
      ],
      "stateMutability": "view",
      "type": "function"
    },
    {
      "inputs": [
        {
          "internalType": "address",
          "name": "owner",
          "type": "address"
        },
        {
          "internalType": "uint256",
          "name": "index",
          "type": "uint256"
        }
      ],
      "name": "tokenOfOwnerByIndex",
      "outputs": [
        {
          "internalType": "uint256",
          "name": "",
          "type": "uint256"
        }
      ],
      "stateMutability": "view",
      "type": "function"
    },
    {
      "inputs": [
        {
          "internalType": "uint256",
          "name": "tokenId",
          "type": "uint256"
        }
      ],
      "name": "tokenURI",
      "outputs": [
        {
          "internalType": "string",
          "name": "",
          "type": "string"
        }
      ],
      "stateMutability": "view",
      "type": "function"
    },
    {
      "inputs": [],
      "name": "totalSupply",
      "outputs": [
        {
          "internalType": "uint256",
          "name": "",
          "type": "uint256"
        }
      ],
      "stateMutability": "view",
      "type": "function"
    },
    {
      "inputs": [
        {
          "internalType": "address",
          "name": "from",
          "type": "address"
        },
        {
          "internalType": "address",
          "name": "to",
          "type": "address"
        },
        {
          "internalType": "uint256",
          "name": "tokenId",
          "type": "uint256"
        }
      ],
      "name": "transferFrom",
      "outputs": [],
      "stateMutability": "nonpayable",
      "type": "function"
    },
    {
      "inputs": [
        {
          "internalType": "address",
          "name": "newOwner",
          "type": "address"
        }
      ],
      "name": "transferOwnership",
      "outputs": [],
      "stateMutability": "nonpayable",
      "type": "function"
    },
    {
      "inputs": [
        {
          "internalType": "address",
          "name": "_owner",
          "type": "address"
        }
      ],
      "name": "walletOfOwner",
      "outputs": [
        {
          "internalType": "uint256[]",
          "name": "",
          "type": "uint256[]"
        }
      ],
      "stateMutability": "view",
      "type": "function"
    },
    {
      "inputs": [],
      "name": "withdraw",
      "outputs": [],
      "stateMutability": "payable",
      "type": "function"
    }
  ],
  "bytecode": "0x60806040526040518060400160405280600581526020017f2e6a736f6e000000000000000000000000000000000000000000000000000000815250600c90816200004a919062000480565b50620186a0600d556005600e556000600f60006101000a81548160ff0219169083151502179055503480156200007f57600080fd5b506040518060400160405280601681526020017f44616f666f726b204e465420436f6c6c656374696f6e000000000000000000008152506040518060400160405280600281526020017f44460000000000000000000000000000000000000000000000000000000000008152508160009081620000fd919062000480565b5080600190816200010f919062000480565b50505062000132620001266200013860201b60201c565b6200014060201b60201c565b62000567565b600033905090565b6000600a60009054906101000a900473ffffffffffffffffffffffffffffffffffffffff16905081600a60006101000a81548173ffffffffffffffffffffffffffffffffffffffff021916908373ffffffffffffffffffffffffffffffffffffffff1602179055508173ffffffffffffffffffffffffffffffffffffffff168173ffffffffffffffffffffffffffffffffffffffff167f8be0079c531659141344cd1fd0a4f28419497f9722a3daafe3b4186f6b6457e060405160405180910390a35050565b600081519050919050565b7f4e487b7100000000000000000000000000000000000000000000000000000000600052604160045260246000fd5b7f4e487b7100000000000000000000000000000000000000000000000000000000600052602260045260246000fd5b600060028204905060018216806200028857607f821691505b6020821081036200029e576200029d62000240565b5b50919050565b60008190508160005260206000209050919050565b60006020601f8301049050919050565b600082821b905092915050565b600060088302620003087fffffffffffffffffffffffffffffffffffffffffffffffffffffffffffffffff82620002c9565b620003148683620002c9565b95508019841693508086168417925050509392505050565b6000819050919050565b6000819050919050565b6000620003616200035b62000355846200032c565b62000336565b6200032c565b9050919050565b6000819050919050565b6200037d8362000340565b620003956200038c8262000368565b848454620002d6565b825550505050565b600090565b620003ac6200039d565b620003b981848462000372565b505050565b5b81811015620003e157620003d5600082620003a2565b600181019050620003bf565b5050565b601f8211156200043057620003fa81620002a4565b6200040584620002b9565b8101602085101562000415578190505b6200042d6200042485620002b9565b830182620003be565b50505b505050565b600082821c905092915050565b6000620004556000198460080262000435565b1980831691505092915050565b600062000470838362000442565b9150826002028217905092915050565b6200048b8262000206565b67ffffffffffffffff811115620004a757620004a662000211565b5b620004b382546200026f565b620004c0828285620003e5565b600060209050601f831160018114620004f85760008415620004e3578287015190505b620004ef858262000462565b8655506200055f565b601f1984166200050886620002a4565b60005b8281101562000532578489015182556001820191506020850194506020810190506200050b565b868310156200055257848901516200054e601f89168262000442565b8355505b6001600288020188555050505b505050505050565b613e2380620005776000396000f3fe6080604052600436106101d85760003560e01c80635c975abb11610102578063a22cb46511610095578063d5abeb0111610064578063d5abeb01146106a2578063da3ef23f146106cd578063e985e9c5146106f6578063f2fde38b14610733576101d8565b8063a22cb465146105e8578063b88d4fde14610611578063c66828621461063a578063c87b56dd14610665576101d8565b8063715018a6116100d1578063715018a6146105525780637f00c7a6146105695780638da5cb5b1461059257806395d89b41146105bd576101d8565b80635c975abb146104825780636352211e146104ad5780636c0360eb146104ea57806370a0823114610515576101d8565b806323b872dd1161017a57806342842e0e1161014957806342842e0e146103b6578063438b6300146103df5780634f6ccce71461041c57806355f804b314610459576101d8565b806323b872dd1461032a5780632f745c59146103535780633ccfd60b1461039057806340c10f191461039a576101d8565b8063081812fc116101b6578063081812fc1461026e578063095ea7b3146102ab57806318160ddd146102d4578063239c70ae146102ff576101d8565b806301ffc9a7146101dd57806302329a291461021a57806306fdde0314610243575b600080fd5b3480156101e957600080fd5b5061020460048036038101906101ff9190612776565b61075c565b60405161021191906127be565b60405180910390f35b34801561022657600080fd5b50610241600480360381019061023c9190612805565b6107d6565b005b34801561024f57600080fd5b506102586107fb565b60405161026591906128c2565b60405180910390f35b34801561027a57600080fd5b506102956004803603810190610290919061291a565b61088d565b6040516102a29190612988565b60405180910390f35b3480156102b757600080fd5b506102d260048036038101906102cd91906129cf565b6108d3565b005b3480156102e057600080fd5b506102e96109ea565b6040516102f69190612a1e565b60405180910390f35b34801561030b57600080fd5b506103146109f7565b6040516103219190612a1e565b60405180910390f35b34801561033657600080fd5b50610351600480360381019061034c9190612a39565b6109fd565b005b34801561035f57600080fd5b5061037a600480360381019061037591906129cf565b610a5d565b6040516103879190612a1e565b60405180910390f35b610398610b02565b005b6103b460048036038101906103af91906129cf565b610b4a565b005b3480156103c257600080fd5b506103dd60048036038101906103d89190612a39565b610ba7565b005b3480156103eb57600080fd5b5061040660048036038101906104019190612a8c565b610bc7565b6040516104139190612b77565b60405180910390f35b34801561042857600080fd5b50610443600480360381019061043e919061291a565b610c75565b6040516104509190612a1e565b60405180910390f35b34801561046557600080fd5b50610480600480360381019061047b9190612cce565b610ce6565b005b34801561048e57600080fd5b50610497610d01565b6040516104a491906127be565b60405180910390f35b3480156104b957600080fd5b506104d460048036038101906104cf919061291a565b610d14565b6040516104e19190612988565b60405180910390f35b3480156104f657600080fd5b506104ff610d9a565b60405161050c91906128c2565b60405180910390f35b34801561052157600080fd5b5061053c60048036038101906105379190612a8c565b610e28565b6040516105499190612a1e565b60405180910390f35b34801561055e57600080fd5b50610567610edf565b005b34801561057557600080fd5b50610590600480360381019061058b919061291a565b610ef3565b005b34801561059e57600080fd5b506105a7610f05565b6040516105b49190612988565b60405180910390f35b3480156105c957600080fd5b506105d2610f2f565b6040516105df91906128c2565b60405180910390f35b3480156105f457600080fd5b5061060f600480360381019061060a9190612d17565b610fc1565b005b34801561061d57600080fd5b5061063860048036038101906106339190612df8565b610fd7565b005b34801561064657600080fd5b5061064f611039565b60405161065c91906128c2565b60405180910390f35b34801561067157600080fd5b5061068c6004803603810190610687919061291a565b6110c7565b60405161069991906128c2565b60405180910390f35b3480156106ae57600080fd5b506106b7611171565b6040516106c49190612a1e565b60405180910390f35b3480156106d957600080fd5b506106f460048036038101906106ef9190612cce565b611177565b005b34801561070257600080fd5b5061071d60048036038101906107189190612e7b565b611192565b60405161072a91906127be565b60405180910390f35b34801561073f57600080fd5b5061075a60048036038101906107559190612a8c565b611226565b005b60007f780e9d63000000000000000000000000000000000000000000000000000000007bffffffffffffffffffffffffffffffffffffffffffffffffffffffff1916827bffffffffffffffffffffffffffffffffffffffffffffffffffffffff191614806107cf57506107ce826112a9565b5b9050919050565b6107de61138b565b80600f60006101000a81548160ff02191690831515021790555050565b60606000805461080a90612eea565b80601f016020809104026020016040519081016040528092919081815260200182805461083690612eea565b80156108835780601f1061085857610100808354040283529160200191610883565b820191906000526020600020905b81548152906001019060200180831161086657829003601f168201915b5050505050905090565b600061089882611409565b6004600083815260200190815260200160002060009054906101000a900473ffffffffffffffffffffffffffffffffffffffff169050919050565b60006108de82610d14565b90508073ffffffffffffffffffffffffffffffffffffffff168373ffffffffffffffffffffffffffffffffffffffff160361094e576040517f08c379a000000000000000000000000000000000000000000000000000000000815260040161094590612f8d565b60405180910390fd5b8073ffffffffffffffffffffffffffffffffffffffff1661096d611454565b73ffffffffffffffffffffffffffffffffffffffff16148061099c575061099b81610996611454565b611192565b5b6109db576040517f08c379a00000000000000000000000000000000000000000000000000000000081526004016109d29061301f565b60405180910390fd5b6109e5838361145c565b505050565b6000600880549050905090565b600e5481565b610a0e610a08611454565b82611515565b610a4d576040517f08c379a0000000000000000000000000000000000000000000000000000000008152600401610a44906130b1565b60405180910390fd5b610a588383836115aa565b505050565b6000610a6883610e28565b8210610aa9576040517f08c379a0000000000000000000000000000000000000000000000000000000008152600401610aa090613143565b60405180910390fd5b600660008473ffffffffffffffffffffffffffffffffffffffff1673ffffffffffffffffffffffffffffffffffffffff168152602001908152602001600020600083815260200190815260200160002054905092915050565b610b0a61138b565b3373ffffffffffffffffffffffffffffffffffffffff166108fc479081150290604051600060405180830381858888f19350505050610b4857600080fd5b565b6000610b546109ea565b9050600f60009054906101000a900460ff1615610b7057600080fd5b60008211610b7d57600080fd5b600d54600182610b8d9190613192565b1115610b9857600080fd5b610ba283836118a3565b505050565b610bc283838360405180602001604052806000815250610fd7565b505050565b60606000610bd483610e28565b905060008167ffffffffffffffff811115610bf257610bf1612ba3565b5b604051908082528060200260200182016040528015610c205781602001602082028036833780820191505090505b50905060005b82811015610c6a57610c388582610a5d565b828281518110610c4b57610c4a6131c6565b5b6020026020010181815250508080610c62906131f5565b915050610c26565b508092505050919050565b6000610c7f6109ea565b8210610cc0576040517f08c379a0000000000000000000000000000000000000000000000000000000008152600401610cb7906132af565b60405180910390fd5b60088281548110610cd457610cd36131c6565b5b90600052602060002001549050919050565b610cee61138b565b80600b9081610cfd919061347b565b5050565b600f60009054906101000a900460ff1681565b600080610d20836118c1565b9050600073ffffffffffffffffffffffffffffffffffffffff168173ffffffffffffffffffffffffffffffffffffffff1603610d91576040517f08c379a0000000000000000000000000000000000000000000000000000000008152600401610d8890613599565b60405180910390fd5b80915050919050565b600b8054610da790612eea565b80601f0160208091040260200160405190810160405280929190818152602001828054610dd390612eea565b8015610e205780601f10610df557610100808354040283529160200191610e20565b820191906000526020600020905b815481529060010190602001808311610e0357829003601f168201915b505050505081565b60008073ffffffffffffffffffffffffffffffffffffffff168273ffffffffffffffffffffffffffffffffffffffff1603610e98576040517f08c379a0000000000000000000000000000000000000000000000000000000008152600401610e8f9061362b565b60405180910390fd5b600360008373ffffffffffffffffffffffffffffffffffffffff1673ffffffffffffffffffffffffffffffffffffffff168152602001908152602001600020549050919050565b610ee761138b565b610ef160006118fe565b565b610efb61138b565b80600e8190555050565b6000600a60009054906101000a900473ffffffffffffffffffffffffffffffffffffffff16905090565b606060018054610f3e90612eea565b80601f0160208091040260200160405190810160405280929190818152602001828054610f6a90612eea565b8015610fb75780601f10610f8c57610100808354040283529160200191610fb7565b820191906000526020600020905b815481529060010190602001808311610f9a57829003601f168201915b5050505050905090565b610fd3610fcc611454565b83836119c4565b5050565b610fe8610fe2611454565b83611515565b611027576040517f08c379a000000000000000000000000000000000000000000000000000000000815260040161101e906130b1565b60405180910390fd5b61103384848484611b30565b50505050565b600c805461104690612eea565b80601f016020809104026020016040519081016040528092919081815260200182805461107290612eea565b80156110bf5780601f10611094576101008083540402835291602001916110bf565b820191906000526020600020905b8154815290600101906020018083116110a257829003601f168201915b505050505081565b60606110d282611b8c565b611111576040517f08c379a0000000000000000000000000000000000000000000000000000000008152600401611108906136bd565b60405180910390fd5b600061111b611bcd565b9050600081511161113b5760405180602001604052806000815250611169565b8061114584611bed565b600c6040516020016111599392919061379c565b6040516020818303038152906040525b915050919050565b600d5481565b61117f61138b565b80600c908161118e919061347b565b5050565b6000600560008473ffffffffffffffffffffffffffffffffffffffff1673ffffffffffffffffffffffffffffffffffffffff16815260200190815260200160002060008373ffffffffffffffffffffffffffffffffffffffff1673ffffffffffffffffffffffffffffffffffffffff16815260200190815260200160002060009054906101000a900460ff16905092915050565b61122e61138b565b600073ffffffffffffffffffffffffffffffffffffffff168173ffffffffffffffffffffffffffffffffffffffff160361129d576040517f08c379a00000000000000000000000000000000000000000000000000000000081526004016112949061383f565b60405180910390fd5b6112a6816118fe565b50565b60007f80ac58cd000000000000000000000000000000000000000000000000000000007bffffffffffffffffffffffffffffffffffffffffffffffffffffffff1916827bffffffffffffffffffffffffffffffffffffffffffffffffffffffff1916148061137457507f5b5e139f000000000000000000000000000000000000000000000000000000007bffffffffffffffffffffffffffffffffffffffffffffffffffffffff1916827bffffffffffffffffffffffffffffffffffffffffffffffffffffffff1916145b80611384575061138382611cbb565b5b9050919050565b611393611454565b73ffffffffffffffffffffffffffffffffffffffff166113b1610f05565b73ffffffffffffffffffffffffffffffffffffffff1614611407576040517f08c379a00000000000000000000000000000000000000000000000000000000081526004016113fe906138ab565b60405180910390fd5b565b61141281611b8c565b611451576040517f08c379a000000000000000000000000000000000000000000000000000000000815260040161144890613599565b60405180910390fd5b50565b600033905090565b816004600083815260200190815260200160002060006101000a81548173ffffffffffffffffffffffffffffffffffffffff021916908373ffffffffffffffffffffffffffffffffffffffff160217905550808273ffffffffffffffffffffffffffffffffffffffff166114cf83610d14565b73ffffffffffffffffffffffffffffffffffffffff167f8c5be1e5ebec7d5bd14f71427d1e84f3dd0314c0f7b2291e5b200ac8c7c3b92560405160405180910390a45050565b60008061152183610d14565b90508073ffffffffffffffffffffffffffffffffffffffff168473ffffffffffffffffffffffffffffffffffffffff16148061156357506115628185611192565b5b806115a157508373ffffffffffffffffffffffffffffffffffffffff166115898461088d565b73ffffffffffffffffffffffffffffffffffffffff16145b91505092915050565b8273ffffffffffffffffffffffffffffffffffffffff166115ca82610d14565b73ffffffffffffffffffffffffffffffffffffffff1614611620576040517f08c379a00000000000000000000000000000000000000000000000000000000081526004016116179061393d565b60405180910390fd5b600073ffffffffffffffffffffffffffffffffffffffff168273ffffffffffffffffffffffffffffffffffffffff160361168f576040517f08c379a0000000000000000000000000000000000000000000000000000000008152600401611686906139cf565b60405180910390fd5b61169c8383836001611d25565b8273ffffffffffffffffffffffffffffffffffffffff166116bc82610d14565b73ffffffffffffffffffffffffffffffffffffffff1614611712576040517f08c379a00000000000000000000000000000000000000000000000000000000081526004016117099061393d565b60405180910390fd5b6004600082815260200190815260200160002060006101000a81549073ffffffffffffffffffffffffffffffffffffffff02191690556001600360008573ffffffffffffffffffffffffffffffffffffffff1673ffffffffffffffffffffffffffffffffffffffff168152602001908152602001600020600082825403925050819055506001600360008473ffffffffffffffffffffffffffffffffffffffff1673ffffffffffffffffffffffffffffffffffffffff16815260200190815260200160002060008282540192505081905550816002600083815260200190815260200160002060006101000a81548173ffffffffffffffffffffffffffffffffffffffff021916908373ffffffffffffffffffffffffffffffffffffffff160217905550808273ffffffffffffffffffffffffffffffffffffffff168473ffffffffffffffffffffffffffffffffffffffff167fddf252ad1be2c89b69c2b068fc378daa952ba7f163c4a11628f55a4df523b3ef60405160405180910390a461189e8383836001611e83565b505050565b6118bd828260405180602001604052806000815250611e89565b5050565b60006002600083815260200190815260200160002060009054906101000a900473ffffffffffffffffffffffffffffffffffffffff169050919050565b6000600a60009054906101000a900473ffffffffffffffffffffffffffffffffffffffff16905081600a60006101000a81548173ffffffffffffffffffffffffffffffffffffffff021916908373ffffffffffffffffffffffffffffffffffffffff1602179055508173ffffffffffffffffffffffffffffffffffffffff168173ffffffffffffffffffffffffffffffffffffffff167f8be0079c531659141344cd1fd0a4f28419497f9722a3daafe3b4186f6b6457e060405160405180910390a35050565b8173ffffffffffffffffffffffffffffffffffffffff168373ffffffffffffffffffffffffffffffffffffffff1603611a32576040517f08c379a0000000000000000000000000000000000000000000000000000000008152600401611a2990613a3b565b60405180910390fd5b80600560008573ffffffffffffffffffffffffffffffffffffffff1673ffffffffffffffffffffffffffffffffffffffff16815260200190815260200160002060008473ffffffffffffffffffffffffffffffffffffffff1673ffffffffffffffffffffffffffffffffffffffff16815260200190815260200160002060006101000a81548160ff0219169083151502179055508173ffffffffffffffffffffffffffffffffffffffff168373ffffffffffffffffffffffffffffffffffffffff167f17307eab39ab6107e8899845ad3d59bd9653f200f220920489ca2b5937696c3183604051611b2391906127be565b60405180910390a3505050565b611b3b8484846115aa565b611b4784848484611ee4565b611b86576040517f08c379a0000000000000000000000000000000000000000000000000000000008152600401611b7d90613acd565b60405180910390fd5b50505050565b60008073ffffffffffffffffffffffffffffffffffffffff16611bae836118c1565b73ffffffffffffffffffffffffffffffffffffffff1614159050919050565b6060604051806060016040528060218152602001613dcd60219139905090565b606060006001611bfc8461206b565b01905060008167ffffffffffffffff811115611c1b57611c1a612ba3565b5b6040519080825280601f01601f191660200182016040528015611c4d5781602001600182028036833780820191505090505b509050600082602001820190505b600115611cb0578080600190039150507f3031323334353637383961626364656600000000000000000000000000000000600a86061a8153600a8581611ca457611ca3613aed565b5b04945060008503611c5b575b819350505050919050565b60007f01ffc9a7000000000000000000000000000000000000000000000000000000007bffffffffffffffffffffffffffffffffffffffffffffffffffffffff1916827bffffffffffffffffffffffffffffffffffffffffffffffffffffffff1916149050919050565b611d31848484846121be565b6001811115611d75576040517f08c379a0000000000000000000000000000000000000000000000000000000008152600401611d6c90613b8e565b60405180910390fd5b6000829050600073ffffffffffffffffffffffffffffffffffffffff168573ffffffffffffffffffffffffffffffffffffffff1603611dbc57611db7816121c4565b611dfb565b8373ffffffffffffffffffffffffffffffffffffffff168573ffffffffffffffffffffffffffffffffffffffff1614611dfa57611df9858261220d565b5b5b600073ffffffffffffffffffffffffffffffffffffffff168473ffffffffffffffffffffffffffffffffffffffff1603611e3d57611e388161237a565b611e7c565b8473ffffffffffffffffffffffffffffffffffffffff168473ffffffffffffffffffffffffffffffffffffffff1614611e7b57611e7a848261244b565b5b5b5050505050565b50505050565b611e9383836124ca565b611ea06000848484611ee4565b611edf576040517f08c379a0000000000000000000000000000000000000000000000000000000008152600401611ed690613acd565b60405180910390fd5b505050565b6000611f058473ffffffffffffffffffffffffffffffffffffffff166126e7565b1561205e578373ffffffffffffffffffffffffffffffffffffffff1663150b7a02611f2e611454565b8786866040518563ffffffff1660e01b8152600401611f509493929190613c03565b6020604051808303816000875af1925050508015611f8c57506040513d601f19601f82011682018060405250810190611f899190613c64565b60015b61200e573d8060008114611fbc576040519150601f19603f3d011682016040523d82523d6000602084013e611fc1565b606091505b506000815103612006576040517f08c379a0000000000000000000000000000000000000000000000000000000008152600401611ffd90613acd565b60405180910390fd5b805181602001fd5b63150b7a0260e01b7bffffffffffffffffffffffffffffffffffffffffffffffffffffffff1916817bffffffffffffffffffffffffffffffffffffffffffffffffffffffff191614915050612063565b600190505b949350505050565b600080600090507a184f03e93ff9f4daa797ed6e38ed64bf6a1f01000000000000000083106120c9577a184f03e93ff9f4daa797ed6e38ed64bf6a1f01000000000000000083816120bf576120be613aed565b5b0492506040810190505b6d04ee2d6d415b85acef81000000008310612106576d04ee2d6d415b85acef810000000083816120fc576120fb613aed565b5b0492506020810190505b662386f26fc10000831061213557662386f26fc10000838161212b5761212a613aed565b5b0492506010810190505b6305f5e100831061215e576305f5e100838161215457612153613aed565b5b0492506008810190505b612710831061218357612710838161217957612178613aed565b5b0492506004810190505b606483106121a6576064838161219c5761219b613aed565b5b0492506002810190505b600a83106121b5576001810190505b80915050919050565b50505050565b6008805490506009600083815260200190815260200160002081905550600881908060018154018082558091505060019003906000526020600020016000909190919091505550565b6000600161221a84610e28565b6122249190613c91565b9050600060076000848152602001908152602001600020549050818114612309576000600660008673ffffffffffffffffffffffffffffffffffffffff1673ffffffffffffffffffffffffffffffffffffffff168152602001908152602001600020600084815260200190815260200160002054905080600660008773ffffffffffffffffffffffffffffffffffffffff1673ffffffffffffffffffffffffffffffffffffffff168152602001908152602001600020600084815260200190815260200160002081905550816007600083815260200190815260200160002081905550505b6007600084815260200190815260200160002060009055600660008573ffffffffffffffffffffffffffffffffffffffff1673ffffffffffffffffffffffffffffffffffffffff16815260200190815260200160002060008381526020019081526020016000206000905550505050565b6000600160088054905061238e9190613c91565b90506000600960008481526020019081526020016000205490506000600883815481106123be576123bd6131c6565b5b9060005260206000200154905080600883815481106123e0576123df6131c6565b5b90600052602060002001819055508160096000838152602001908152602001600020819055506009600085815260200190815260200160002060009055600880548061242f5761242e613cc5565b5b6001900381819060005260206000200160009055905550505050565b600061245683610e28565b905081600660008573ffffffffffffffffffffffffffffffffffffffff1673ffffffffffffffffffffffffffffffffffffffff168152602001908152602001600020600083815260200190815260200160002081905550806007600084815260200190815260200160002081905550505050565b600073ffffffffffffffffffffffffffffffffffffffff168273ffffffffffffffffffffffffffffffffffffffff1603612539576040517f08c379a000000000000000000000000000000000000000000000000000000000815260040161253090613d40565b60405180910390fd5b61254281611b8c565b15612582576040517f08c379a000000000000000000000000000000000000000000000000000000000815260040161257990613dac565b60405180910390fd5b612590600083836001611d25565b61259981611b8c565b156125d9576040517f08c379a00000000000000000000000000000000000000000000000000000000081526004016125d090613dac565b60405180910390fd5b6001600360008473ffffffffffffffffffffffffffffffffffffffff1673ffffffffffffffffffffffffffffffffffffffff16815260200190815260200160002060008282540192505081905550816002600083815260200190815260200160002060006101000a81548173ffffffffffffffffffffffffffffffffffffffff021916908373ffffffffffffffffffffffffffffffffffffffff160217905550808273ffffffffffffffffffffffffffffffffffffffff16600073ffffffffffffffffffffffffffffffffffffffff167fddf252ad1be2c89b69c2b068fc378daa952ba7f163c4a11628f55a4df523b3ef60405160405180910390a46126e3600083836001611e83565b5050565b6000808273ffffffffffffffffffffffffffffffffffffffff163b119050919050565b6000604051905090565b600080fd5b600080fd5b60007fffffffff0000000000000000000000000000000000000000000000000000000082169050919050565b6127538161271e565b811461275e57600080fd5b50565b6000813590506127708161274a565b92915050565b60006020828403121561278c5761278b612714565b5b600061279a84828501612761565b91505092915050565b60008115159050919050565b6127b8816127a3565b82525050565b60006020820190506127d360008301846127af565b92915050565b6127e2816127a3565b81146127ed57600080fd5b50565b6000813590506127ff816127d9565b92915050565b60006020828403121561281b5761281a612714565b5b6000612829848285016127f0565b91505092915050565b600081519050919050565b600082825260208201905092915050565b60005b8381101561286c578082015181840152602081019050612851565b60008484015250505050565b6000601f19601f8301169050919050565b600061289482612832565b61289e818561283d565b93506128ae81856020860161284e565b6128b781612878565b840191505092915050565b600060208201905081810360008301526128dc8184612889565b905092915050565b6000819050919050565b6128f7816128e4565b811461290257600080fd5b50565b600081359050612914816128ee565b92915050565b6000602082840312156129305761292f612714565b5b600061293e84828501612905565b91505092915050565b600073ffffffffffffffffffffffffffffffffffffffff82169050919050565b600061297282612947565b9050919050565b61298281612967565b82525050565b600060208201905061299d6000830184612979565b92915050565b6129ac81612967565b81146129b757600080fd5b50565b6000813590506129c9816129a3565b92915050565b600080604083850312156129e6576129e5612714565b5b60006129f4858286016129ba565b9250506020612a0585828601612905565b9150509250929050565b612a18816128e4565b82525050565b6000602082019050612a336000830184612a0f565b92915050565b600080600060608486031215612a5257612a51612714565b5b6000612a60868287016129ba565b9350506020612a71868287016129ba565b9250506040612a8286828701612905565b9150509250925092565b600060208284031215612aa257612aa1612714565b5b6000612ab0848285016129ba565b91505092915050565b600081519050919050565b600082825260208201905092915050565b6000819050602082019050919050565b612aee816128e4565b82525050565b6000612b008383612ae5565b60208301905092915050565b6000602082019050919050565b6000612b2482612ab9565b612b2e8185612ac4565b9350612b3983612ad5565b8060005b83811015612b6a578151612b518882612af4565b9750612b5c83612b0c565b925050600181019050612b3d565b5085935050505092915050565b60006020820190508181036000830152612b918184612b19565b905092915050565b600080fd5b600080fd5b7f4e487b7100000000000000000000000000000000000000000000000000000000600052604160045260246000fd5b612bdb82612878565b810181811067ffffffffffffffff82111715612bfa57612bf9612ba3565b5b80604052505050565b6000612c0d61270a565b9050612c198282612bd2565b919050565b600067ffffffffffffffff821115612c3957612c38612ba3565b5b612c4282612878565b9050602081019050919050565b82818337600083830152505050565b6000612c71612c6c84612c1e565b612c03565b905082815260208101848484011115612c8d57612c8c612b9e565b5b612c98848285612c4f565b509392505050565b600082601f830112612cb557612cb4612b99565b5b8135612cc5848260208601612c5e565b91505092915050565b600060208284031215612ce457612ce3612714565b5b600082013567ffffffffffffffff811115612d0257612d01612719565b5b612d0e84828501612ca0565b91505092915050565b60008060408385031215612d2e57612d2d612714565b5b6000612d3c858286016129ba565b9250506020612d4d858286016127f0565b9150509250929050565b600067ffffffffffffffff821115612d7257612d71612ba3565b5b612d7b82612878565b9050602081019050919050565b6000612d9b612d9684612d57565b612c03565b905082815260208101848484011115612db757612db6612b9e565b5b612dc2848285612c4f565b509392505050565b600082601f830112612ddf57612dde612b99565b5b8135612def848260208601612d88565b91505092915050565b60008060008060808587031215612e1257612e11612714565b5b6000612e20878288016129ba565b9450506020612e31878288016129ba565b9350506040612e4287828801612905565b925050606085013567ffffffffffffffff811115612e6357612e62612719565b5b612e6f87828801612dca565b91505092959194509250565b60008060408385031215612e9257612e91612714565b5b6000612ea0858286016129ba565b9250506020612eb1858286016129ba565b9150509250929050565b7f4e487b7100000000000000000000000000000000000000000000000000000000600052602260045260246000fd5b60006002820490506001821680612f0257607f821691505b602082108103612f1557612f14612ebb565b5b50919050565b7f4552433732313a20617070726f76616c20746f2063757272656e74206f776e6560008201527f7200000000000000000000000000000000000000000000000000000000000000602082015250565b6000612f7760218361283d565b9150612f8282612f1b565b604082019050919050565b60006020820190508181036000830152612fa681612f6a565b9050919050565b7f4552433732313a20617070726f76652063616c6c6572206973206e6f7420746f60008201527f6b656e206f776e6572206f7220617070726f76656420666f7220616c6c000000602082015250565b6000613009603d8361283d565b915061301482612fad565b604082019050919050565b6000602082019050818103600083015261303881612ffc565b9050919050565b7f4552433732313a2063616c6c6572206973206e6f7420746f6b656e206f776e6560008201527f72206f7220617070726f76656400000000000000000000000000000000000000602082015250565b600061309b602d8361283d565b91506130a68261303f565b604082019050919050565b600060208201905081810360008301526130ca8161308e565b9050919050565b7f455243373231456e756d657261626c653a206f776e657220696e646578206f7560008201527f74206f6620626f756e6473000000000000000000000000000000000000000000602082015250565b600061312d602b8361283d565b9150613138826130d1565b604082019050919050565b6000602082019050818103600083015261315c81613120565b9050919050565b7f4e487b7100000000000000000000000000000000000000000000000000000000600052601160045260246000fd5b600061319d826128e4565b91506131a8836128e4565b92508282019050808211156131c0576131bf613163565b5b92915050565b7f4e487b7100000000000000000000000000000000000000000000000000000000600052603260045260246000fd5b6000613200826128e4565b91507fffffffffffffffffffffffffffffffffffffffffffffffffffffffffffffffff820361323257613231613163565b5b600182019050919050565b7f455243373231456e756d657261626c653a20676c6f62616c20696e646578206f60008201527f7574206f6620626f756e64730000000000000000000000000000000000000000602082015250565b6000613299602c8361283d565b91506132a48261323d565b604082019050919050565b600060208201905081810360008301526132c88161328c565b9050919050565b60008190508160005260206000209050919050565b60006020601f8301049050919050565b600082821b905092915050565b6000600883026133317fffffffffffffffffffffffffffffffffffffffffffffffffffffffffffffffff826132f4565b61333b86836132f4565b95508019841693508086168417925050509392505050565b6000819050919050565b600061337861337361336e846128e4565b613353565b6128e4565b9050919050565b6000819050919050565b6133928361335d565b6133a661339e8261337f565b848454613301565b825550505050565b600090565b6133bb6133ae565b6133c6818484613389565b505050565b5b818110156133ea576133df6000826133b3565b6001810190506133cc565b5050565b601f82111561342f57613400816132cf565b613409846132e4565b81016020851015613418578190505b61342c613424856132e4565b8301826133cb565b50505b505050565b600082821c905092915050565b600061345260001984600802613434565b1980831691505092915050565b600061346b8383613441565b9150826002028217905092915050565b61348482612832565b67ffffffffffffffff81111561349d5761349c612ba3565b5b6134a78254612eea565b6134b28282856133ee565b600060209050601f8311600181146134e557600084156134d3578287015190505b6134dd858261345f565b865550613545565b601f1984166134f3866132cf565b60005b8281101561351b578489015182556001820191506020850194506020810190506134f6565b868310156135385784890151613534601f891682613441565b8355505b6001600288020188555050505b505050505050565b7f4552433732313a20696e76616c696420746f6b656e2049440000000000000000600082015250565b600061358360188361283d565b915061358e8261354d565b602082019050919050565b600060208201905081810360008301526135b281613576565b9050919050565b7f4552433732313a2061646472657373207a65726f206973206e6f74206120766160008201527f6c6964206f776e65720000000000000000000000000000000000000000000000602082015250565b600061361560298361283d565b9150613620826135b9565b604082019050919050565b6000602082019050818103600083015261364481613608565b9050919050565b7f4552433732314d657461646174613a2055524920717565727920666f72206e6f60008201527f6e6578697374656e7420746f6b656e0000000000000000000000000000000000602082015250565b60006136a7602f8361283d565b91506136b28261364b565b604082019050919050565b600060208201905081810360008301526136d68161369a565b9050919050565b600081905092915050565b60006136f382612832565b6136fd81856136dd565b935061370d81856020860161284e565b80840191505092915050565b6000815461372681612eea565b61373081866136dd565b9450600182166000811461374b576001811461376057613793565b60ff1983168652811515820286019350613793565b613769856132cf565b60005b8381101561378b5781548189015260018201915060208101905061376c565b838801955050505b50505092915050565b60006137a882866136e8565b91506137b482856136e8565b91506137c08284613719565b9150819050949350505050565b7f4f776e61626c653a206e6577206f776e657220697320746865207a65726f206160008201527f6464726573730000000000000000000000000000000000000000000000000000602082015250565b600061382960268361283d565b9150613834826137cd565b604082019050919050565b600060208201905081810360008301526138588161381c565b9050919050565b7f4f776e61626c653a2063616c6c6572206973206e6f7420746865206f776e6572600082015250565b600061389560208361283d565b91506138a08261385f565b602082019050919050565b600060208201905081810360008301526138c481613888565b9050919050565b7f4552433732313a207472616e736665722066726f6d20696e636f72726563742060008201527f6f776e6572000000000000000000000000000000000000000000000000000000602082015250565b600061392760258361283d565b9150613932826138cb565b604082019050919050565b600060208201905081810360008301526139568161391a565b9050919050565b7f4552433732313a207472616e7366657220746f20746865207a65726f2061646460008201527f7265737300000000000000000000000000000000000000000000000000000000602082015250565b60006139b960248361283d565b91506139c48261395d565b604082019050919050565b600060208201905081810360008301526139e8816139ac565b9050919050565b7f4552433732313a20617070726f766520746f2063616c6c657200000000000000600082015250565b6000613a2560198361283d565b9150613a30826139ef565b602082019050919050565b60006020820190508181036000830152613a5481613a18565b9050919050565b7f4552433732313a207472616e7366657220746f206e6f6e20455243373231526560008201527f63656976657220696d706c656d656e7465720000000000000000000000000000602082015250565b6000613ab760328361283d565b9150613ac282613a5b565b604082019050919050565b60006020820190508181036000830152613ae681613aaa565b9050919050565b7f4e487b7100000000000000000000000000000000000000000000000000000000600052601260045260246000fd5b7f455243373231456e756d657261626c653a20636f6e736563757469766520747260008201527f616e7366657273206e6f7420737570706f727465640000000000000000000000602082015250565b6000613b7860358361283d565b9150613b8382613b1c565b604082019050919050565b60006020820190508181036000830152613ba781613b6b565b9050919050565b600081519050919050565b600082825260208201905092915050565b6000613bd582613bae565b613bdf8185613bb9565b9350613bef81856020860161284e565b613bf881612878565b840191505092915050565b6000608082019050613c186000830187612979565b613c256020830186612979565b613c326040830185612a0f565b8181036060830152613c448184613bca565b905095945050505050565b600081519050613c5e8161274a565b92915050565b600060208284031215613c7a57613c79612714565b5b6000613c8884828501613c4f565b91505092915050565b6000613c9c826128e4565b9150613ca7836128e4565b9250828203905081811115613cbf57613cbe613163565b5b92915050565b7f4e487b7100000000000000000000000000000000000000000000000000000000600052603160045260246000fd5b7f4552433732313a206d696e7420746f20746865207a65726f2061646472657373600082015250565b6000613d2a60208361283d565b9150613d3582613cf4565b602082019050919050565b60006020820190508181036000830152613d5981613d1d565b9050919050565b7f4552433732313a20746f6b656e20616c7265616479206d696e74656400000000600082015250565b6000613d96601c8361283d565b9150613da182613d60565b602082019050919050565b60006020820190508181036000830152613dc581613d89565b905091905056fe68747470733a2f2f64616f666f6c6b2e73332e616d617a6f6e6177732e636f6d2fa264697066735822122007bb089e525930d532536d631d7ee193f106738845fb797d752f110ef1e60bb064736f6c63430008120033",
  "linkReferences": {},
  "deployedLinkReferences": {}
}